:020000001828BE
:100008007E1480312000901E0A280B280E28843187
:100018005D2480312000111C1228132816288331F2
:10002800E92380317E100900192884319E2480310B
:10003800FC0084319F248031FD0084319B24803171
:10004800D80084319C248031D90084319D248031AA
:10005800DA00FA01FB0120308400003085002930E5
:100068008431852480317E102000D12AF7000630A3
:10007800F0007708843114248031243E86008701FB
:100088000630F0007708843114248031203E0107BF
:10009800F4007408860087010630F0007708843180
:1000A80014248031223E8400850100080106031DC6
:1000B8005E285F2861280030E9280630F0007708BC
:1000C800843114248031253E860087018101063061
:1000D800F0007708843114248031243E860087019B
:1000E8000630F0007708843114248031203E01075F
:1000F800F4007408860087010630F0007708843120
:1001080014248031223E840085010008010203186E
:100118008E288F289B280630F00077088431142415
:100128008031223E8600870101308102A8280130F3
:10013800F4000630F0007708843114248031223E20
:1001480086008701740881070630F000770884313B
:1001580014248031243E860087010630F000770899
:10016800843114248031203E0107F400740886008D
:1001780087010630F0007708843114248031223E4C
:1001880084008501000801060319CB28CC28CE2855
:10019800FC01E82820004608031DD328D428D728C6
:1001A800F501F601DB283230F5000030F6000630A4
:1001B800F0007708843114248031233E86008701BB
:1001C800750881000130FC00013008002000470854
:1001D8007A050319F028F1281429033080313A20D0
:1001E8008031003A0319F928FA28FB2864290230DB
:1001F80080313A208031003A03190329042905295E
:100208006429013080313A208031003A03190D29E0
:100218000E290F296429003080313A208031642961
:100228007A080319182919292D29013080313A2013
:100238008031003A03192129222923296429003011
:1002480080313A208031003A03192B292C29412981
:100258006429003080313A208031003A0319352969
:10026800362937296429013080313A208031003A13
:1002780003193F2940294129642920004708031907
:10028800462947295629033080313A208031003ADF
:1002980003194F29502951296429023080313A2005
:1002A80080316429023080313A208031003A0319C4
:1002B8005E295F2960296429033080313A20803122
:1002C80008008331D32381310030843129248131DE
:1002D8002000A00001308431292481312000A100B0
:1002E80002308431292481312000A6000330843172
:1002F800292481312000A700043084312924813148
:100308002000AC0005308431292481312000AD0063
:1003180006308431292481312000B200073084312D
:10032800292481312000B3000830203E860087014F
:100338000E30203E840085019630B400803FC03FD7
:10034800A200B501AF01A901A3010B30203E860030
:1003580087011130203E840085010130B700803FBD
:10036800C03FA500C830C9000130CA0084319124BB
:1003780081315E302000C9000230CA0084318B24EC
:1003880081318B170B1708000130F0007008FB074C
:10039800052A200022087B02031CD329D4291B2A02
:1003A800250C2200031C8C1203188C161B2A200013
:1003B80028087B02031CE129E2291B2A2B0C2200B6
:1003C800031C0C1203180C161B2A20002E087B0293
:1003D800031CEF29F0291B2A310C2200031C8E1262
:1003E80003188E161B2A200034087B02031CFD29E3
:1003F800FE291B2A370C2200031C0E1203180E16A6
:100408001B2A7D08F000F1017108003A03190D2A32
:100418001B2A7008003A0319CD29013A0319DB2970
:10042800033A0319E929013A0319F7291B2A080095
:10043800462A22008C1420003908D9003808D80030
:100448005A2A5808590403192A2A2B2A3A2A013009
:10045800D8020030D93B580807390319342A372AFB
:1004680022008C14392A22008C105A2A22008C105F
:100478000230FC005A2A84314D24823183318A2388
:1004880082315A2A7C082000CF00D0015008003A57
:1004980003194F2A5A2A4F08003A03191D2A013A0C
:1004A8000319252A033A03193F2A5A2A8231982226
:1004B80082310800FB01812AFD0122008C16972A4F
:1004C8000130FD0022000C16972A0230FD002200A0
:1004D8008E16972A0330FD0022000E16972A043044
:1004E800FD0001302000C8007C0303197C2A7D2A06
:1004F800972A8031EA208231972A7D08F800F9018D
:100508007908003A0319892A732A7808003A0319E6
:10051800642A013A0319692A033A03196E2A063A2A
:100528000319602A732A08002000CE010630C9008A
:100538004E088331BD238231233E8600870101089E
:100548000319A72AA82AC52A06302000C9004E0880
:100558008331BD238231233E860087010130810229
:10056800031DB72AB82AC52A06302000C9004E083C
:100578008331BD238231253E86008701200046084D
:10058800810001302000CD004D08CE0704304E0216
:10059800031CCF2AD02A9A2A08008131652182318A
:1005A8002000D3010630C90053088331BD238231AE
:1005B800253E86008701810104302000D2000C30DE
:1005C800D1003330890BE62AD10BE62AD20BE62A72
:1005D800003201302000D1005108D3070430530203
:1005E800031CF72AF82AD62A0230FC002000480803
:1005F8000319FF2A002BFA2AC80183310923823103
:1006080082311C228231FA2A1828003020000C1866
:100618000130C50000308C190130C40000308E193B
:100628000130C20000300E190130C10000308E18B0
:100638000130C0004008C6004108C30002308331C1
:100648004F23833120004A08B9004908B800220026
:100658000E1008003F3022008C003F308E0005301D
:1006680021008C000E308E0023008E0104308C0097
:10067800093024008C000E308E0025008C018E017C
:10068800373026008C003F308E003F3027008C002A
:100698003F308E0008002000CC004C08CB00CB0D6A
:1006A800CB0D21001D0820004B0603394B06210005
:1006B8009D001D140D30890B5F2B000021009D1437
:1006C8009D18672B682B642B1C082000CA0021008A
:1006D8001B082000C90008002000CE010630C90010
:1006E8004E088331BD238331253E86008701810171
:1006F80001302000CD004D08CE0704304E02031C07
:10070800862B872B722BD801D901080020004508B9
:10071800A4004508AA004508FA0043080319952BC8
:10072800962B9D2B4508C7004508B0004508B60024
:10073800A32B4408C7004408B0004408B6000800CA
:1007480020009C01E0309A00C030990011101A086E
:10075800BD001908BC0021001114A2302000C900F6
:100768000430CA0084318B248331253020009B005B
:1007780008002000CC00CB014C1CC32BC42BC82B79
:100788004908CA004A08CB070310C90D0310CC0C4E
:100798004C08031DD02BD12BC02B4B0808008431EB
:1007A8007D24833183312E23833184316B2483313B
:1007B8008431972483318431742483318331A42391
:1007C80083318331FF2383310800200011103D0855
:1007D800F1003C08F00084313C24833120005408A7
:1007E80055040319F82BF92BFE2B55088A005408D9
:1007F8000A00833108005030200098004F309600DE
:100808009501901221009016A3302000C9000430F1
:10081800CA00843191248331803020009700080079
:10082800F300F201731C192C1A2C1E2C7008F1000D
:100838007108F2070310F00D0310F30C7308031D81
:10084800262C272C162C720808002000C9006400EA
:1008580031009518302C322C20002B2C1517200035
:1008680049083100910070309200151413080800EF
:1008780020001B1D402C412C482C1B1071089A008D
:10088800700899001B144C2C71089A007008990084
:10089800080020005A080319522C532C582C0130F8
:1008A800DA0222008C105C2C6430DA0022008C14EE
:1008B800080020009012560857040319642C652C70
:1008C8006A2C57088A0056080A00843108006030EC
:1008D800320099009B019D0107309F009E0108008E
:1008E800A03021009E009F019B019C0101309D00CA
:1008F800080032009101920193019401950196013B
:100908000800640080010131890B862C0034200026
:100918004A08D5004908D400080020004A08D70032
:100928004908D60008001630210097000800013455
:100938000034643401340434643432340800080068
:020000040001F9
:08000000FF3FFF3FFF3FFF3F00
:08000E00EC3FF23FFF1FFF3F32
:10E000007E00B900BC007C007500B400B70072004F
:00000001FF
